:100000000C9463000C9409070C9436070C948B0035
:100010000C948B000C948B000C948B000C948B0034
:100020000C948B000C948B000C948B000C94F015AA
:100030000C948B000C948B000C948B000C948B0014
:100040000C9470110C948B000C948E000C94D500C1
:100050000C948B000C948B000C948B000C948B00F4
:100060000C948B000C948B000000000024002700EF
:100070002A0000000000250028002B0000000000DE
:1000800023002600290004040404040404040202DA
:100090000202020203030303030301020408102007
:1000A0004080010204081020010204081020000012
:1000B0000007000201000003040600000000000029
:1000C00000003003AD1611241FBECFEFD8E0DEBF15
:1000D000CDBF16E0A0E0B1E0E8E7FCE302C0059088
:1000E0000D92A63EB107D9F717E0A6EEB6E001C023
:1000F0001D92AE3CB107E1F710E0C6ECD0E004C0C1
:100100002297FE010E94E41DC23CD107C9F70E945C
:10011000F3160C943A1E0C94000008951F920F924F
:100120000FB60F9211242F933F934F938F939F936A
:10013000EF93FF934091C600209126073091270747
:100140002F5F3F4F2F7330708091280790912907C0
:100150002817390759F0E0912607F0912707EA514F
:10016000F94F40833093270720932607FF91EF91A3
:100170009F918F914F913F912F910F900FBE0F90B4
:100180001F901895E0917A07F0917B07E05CFF4F94
:100190008191919120813181821B930B8F7390709B
:1001A000892B11F00E948D0008951F920F920FB6B7
:1001B0000F9211242F933F934F935F936F937F93ED
:1001C0008F939F93AF93BF93EF93FF9320916A0711
:1001D00030916B0780916C0790916D072817390754
:1001E00031F48091C1008F7D8093C10016C0E091F1
:1001F0006C07F0916D07E65DF84F408180916C07C8
:1002000090916D07019660E470E00E947E1D9093CE
:100210006D0780936C074093C600FF91EF91BF91EB
:10022000AF919F918F917F916F915F914F913F918E
:100230002F910F900FBE0F901F9018958F92AF9235
:10024000BF92CF92DF92EF92FF920F931F93DF93B3
:10025000CF93CDB7DEB7FC011382128288EE93E014
:10026000A0E0B0E084839583A683B78384E091E027
:10027000918380837587648757874687318B208B6E
:10028000138B028BF58AE48AD78AC68AB18EA08E38
:10029000828E8E85838F8F85848F8889858F8989CB
:1002A000868FCF91DF911F910F91FF90EF90DF909C
:1002B000CF90BF90AF908F9008958F92AF92BF92E2
:1002C000CF92DF92EF92FF920F931F93DF93CF9322
:1002D000CDB7DEB7FC011382128288EE93E0A0E076
:1002E000B0E084839583A683B78384E091E0918313
:1002F00080837587648757874687318B208B138B64
:10030000028BF58AE48AD78AC68AB18EA08E828E45
:100310008E85838F8F85848F8889858F8989868F45
:10032000CF91DF911F910F91FF90EF90DF90CF90D1
:10033000BF90AF908F900895AF92BF92DF92EF92EF
:10034000FF920F931F93CF93DF93EC017A018B0100
:10035000DD24403081EE580780E0680780E07807B0
:1003600011F0DD24D39491E0A92EB12CEC89FD8904
:10037000DD2069F0C5010E8C02C0880F991F0A9418
:10038000E2F7808360E079E08DE390E005C01082C1
:1003900060E874E88EE190E0A80197010E94911D49
:1003A000215030404040504056954795379527950D
:1003B00080E12030380720F0DD2011F0DD24D6CF99
:1003C000E889F9893083EA89FB892083EE89FF89EE
:1003D000408121E030E0C9010A8C02C0880F991FDA
:1003E0000A94E2F7482B4083EE89FF894081C901D6
:1003F0000B8C02C0880F991F0A94E2F7482B4083A8
:10040000EE89FF894081C9010C8C02C0880F991FB9
:100410000A94E2F7482B4083EE89FF8980810D8C96
:1004200002C0220F331F0A94E2F72095282320836D
:10043000DF91CF911F910F91FF90EF90DF90BF90D0
:10044000AF900895CF93DF93DC011E968D919C9120
:100450001F97EC01C05CDF4FFC01EE5BFF4F288172
:1004600039818081918128173907C9F75696ED9116
:10047000FC915797408121E030E0C9015A960C90D9
:100480005A9702C0880F991F0A94E2F78095842337
:1004900080835696ED91FC9157974081C9015B96F8
:1004A0000C905B9702C0880F991F0A94E2F7809521
:1004B000842380835696ED91FC9157974081C90122
:1004C0005C960C905C9702C0880F991F0A94E2F723
:1004D0008095842380835696ED91FC915797808177
:1004E0005D960C905D9702C0220F331F0A94E2F7CD
:1004F0002095282320831C96ED91FC911D97EE5B9F
:10050000FF4F8081918192938293DF91CF910895E3
:10051000DC011C96ED91FC911D97E05CFF4F219151
:10052000319180819181281B390B2F733070C90163
:100530000895DC011C96ED91FC911D97E05CFF4F46
:1005400020813181E054F040DF01AE5BBF4F8D91DF
:100550009C9111972817390719F42FEF3FEF07C027
:100560008D919C91E80FF91F8081282F30E0C901FF
:100570000895DC011C96ED91FC911D97E05CFF4F06
:1005800020813181E054F040DF01AE5BBF4F8D919F
:100590009C9111972817390719F42FEF3FEF10C0DE
:1005A0008D919C911197E80FF91F20818D919C915D
:1005B000119701968F73907011969C938E9330E0F3
:1005C000C9010895FC0186859785DC01A05CBF4FB9
:1005D000FC01EE5BFF4F2D913C9111978081918141
:1005E00028173907C1F70895CF93DF93EC01462F01
:1005F000EE85FF85E05CFF4F80819181E054F04003
:10060000019660E470E00E947E1D9C01DF01AE5BFC
:10061000BF4F8D919C91119728173907D1F3E05C5A
:10062000FF4F80819181E054F040E80FF91F408333
:10063000EE85FF85E05CFF4F31832083EE89FF89E3
:10064000208181E090E00D8C02C0880F991F0A94F0
:10065000E2F7282B208381E090E0DF91CF9108958D
:10066000109271071092700788EE93E0A0E0B0E05E
:100670008093720790937307A0937407B0937507E4
:1006800084E091E090936F0780936E0786EE96E08A
:1006900090937B0780937A078AE297E090937D0797
:1006A00080937C0785EC90E090937F0780937E0792
:1006B00084EC90E0909381078093800780EC90E039
:1006C000909383078093820781EC90E09093850755
:1006D0008093840786EC90E0909387078093860749
:1006E00084E08093880783E08093890787E0809384
:1006F0008A0785E080938B0781E080938C070895BB
:10070000CF92DF92EF92FF920F931F93CF93DF93DD
:100710007C016B018A01C0E0D0E00FC0D6016D9171
:100720006D01D701ED91FC910190F081E02DC701A1
:100730000995C80FD91F015010400115110571F717
:10074000CE01DF91CF911F910F91FF90EF90DF903D
:10075000CF900895EF92FF920F931F93CF93DF9363
:100760007C018B01C0E0D0E0F8010F5F1F4F649166
:10077000662359F0D701ED91FC910190F081E02DB5
:10078000C7010995C80FD91FEFCFCE01DF91CF91D7
:100790001F910F91FF90EF900895DC01ED91FC9176
:1007A0000190F081E02D099508959C01DB01ED9108
:1007B000FC910190F081E02DCB01B90109950895DC
:1007C000EF92FF920F931F938C01DC01ED91FC914E
:1007D0000190F081E02D6DE009957C01D801ED914B
:1007E000FC910190F081E02DC8016AE009959C011F
:1007F0002E0D3F1DC9011F910F91FF90EF9008959D
:10080000EF92FF920F931F937C010E94AA038C0129
:10081000C7010E94E0039C01200F311FC9011F91F5
:100820000F91FF90EF900895EF92FF920F931F9317
:100830007C01DC01ED91FC910190F081E02D0995A6
:100840008C01C7010E94E003080F191FC8011F9106
:100850000F91FF90EF900895EF92FF920F931F93E7
:100860007C01DB01ED91FC910190F081E02DCB0149
:10087000B70109958C01C7010E94E003080F191FF9
:10088000C8011F910F91FF90EF900895CF93DF93D0
:10089000DB010D900020E9F71197A61BB70BEC01C7
:1008A000E881F9810280F381E02DAD010995DF91A6
:1008B000CF9108954F925F927F928F929F92AF92C5
:1008C000BF92CF92DF92EF92FF920F931F93DF932D
:1008D000CF93CDB7DEB7A1970FB6F894DEBF0FBEAA
:1008E000CDBF2C01742ECB01223008F42AE019A2CE
:1008F00031E2C32ED12CCC0EDD1E822E9924AA24E7
:10090000BB24672D752FA50194010E94911D7901CB
:100910008A01C801B701A50194010E94531D472D0A
:10092000461B0894C108D1084A3014F4405D01C048
:10093000495CF6014083E114F1040105110521F041
:100940007E2C5F2DC801DDCFC201B6010E94460496
:10095000A1960FB6F894DEBF0FBECDBFCF91DF9149
:100960001F910F91FF90EF90DF90CF90BF90AF90CD
:100970009F908F907F905F904F900895DC0121159C
:10098000310541F4ED91FC910190F081E02D642F4F
:10099000099508950E945A040895EF92FF920F93CB
:1009A0001F937C010E94BE048C01C7010E94E003DA
:1009B0009C01200F311FC9011F910F91FF90EF90F3
:1009C0000895EF92FF920F931F939A017B0100E02D
:1009D00010E0B801A7010E94BE041F910F91FF9083
:1009E000EF900895CF92DF92EF92FF920F931F93B3
:1009F0006C017B019A0100E010E0B801A7010E94A0
:100A0000BE048C01C6010E94E003080F191FC80133
:100A10001F910F91FF90EF90DF90CF900895EF928C
:100A2000FF920F931F939A01E62EFF2400E010E03F
:100A3000B801A7010E94BE041F910F91FF90EF9093
:100A40000895CF92DF92EF92FF920F931F936C0164
:100A5000E62E9A01FF2400E010E0B801A7010E94F1
:100A6000BE048C01C6010E94E003080F191FC801D3
:100A70001F910F91FF90EF90DF90CF900895CF924C
:100A8000DF92EF92FF920F931F93CF93DF93EC01CE
:100A90006A017B012115310541F4E881F98101905A
:100AA000F081E02D642F09951FC02A303105D1F463
:100AB00077FF17C0E881F9810190F081E02D6DE2A8
:100AC00009958C0144275527BA014C195D096E0917
:100AD0007F09CE012AE00E945A049801280F391F8D
:100AE00004C02AE00E945A049C01C901DF91CF9101
:100AF0001F910F91FF90EF90DF90CF900895EF92AC
:100B0000FF920F931F937C010E943F058C01C70148
:100B10000E94E0039C01200F311FC9011F910F911A
:100B2000FF90EF900895EF92FF920F931F937B0138
:100B30009A010027F7FC0095102FB801A7010E9429
:100B40003F051F910F91FF90EF900895CF92DF9294
:100B5000EF92FF920F931F936C017B019A01002784
:100B6000F7FC0095102FB801A7010E943F058C01EA
:100B7000C6010E94E003080F191FC8011F910F91C1
:100B8000FF90EF90DF90CF9008950E944604089563
:100B90007F928F929F92AF92BF92CF92DF92EF920D
:100BA000FF920F931F93CF93DF934C017A018B0138
:100BB000722ECB01BA0120E030E040E050E00E940C
:100BC0009D1B87FD03C0C0E0D0E00EC0D401ED91B5
:100BD000FC910190F081E02DC4016DE20995EC01DA
:100BE00017FB109517F9109520E030E040E05FE327
:100BF000AA240BC0CA01B90120E030E040E251E470
:100C00000E94A11B9B01AC01A394A71498F3C801F7
:100C1000B7010E94391B5B016C010E940E1C7B0115
:100C20008C01C401B801A7012AE030E00E94BE0493
:100C3000C80FD91F772039F0C40160E271E00E942B
:100C40004604C80FD91FC801B7010E943A1C9B0176
:100C5000AC01C601B5010E94381B24C020E030E081
:100C600040E251E40E94F01C7B018C010E94091CAF
:100C70005B016C01CC24B7FCC094DC2CC401B60130
:100C8000A5012AE030E00E943F05C80FD91FC60128
:100C9000B5010E943C1C9B01AC01C801B7010E9438
:100CA000381B7A947720D1F6CE01DF91CF911F9136
:100CB0000F91FF90EF90DF90CF90BF90AF909F90FB
:100CC0008F907F9008950E94C8050895EF92FF923B
:100CD0000F931F937C010E94C8058C01C7010E94DD
:100CE000E003080F191FC8011F910F91FF90EF90AB
:100CF0000895EF92FF920F931F937C010E94460488
:100D00008C01C7010E94E003080F191FC8011F9141
:100D10000F91FF90EF900895AF92BF92CF92DF9224
:100D2000EF92FF920F931F93CF93DF935C016B01C0
:100D3000EE24FF24C0E0D0E010C0D501ED91FC917D
:100D400000811181C601BE010E942F08682FC501D4
:100D5000F8010995E80EF91E2196F6018481958126
:100D6000C817D90750F3C701DF91CF911F910F9199
:100D7000FF90EF90DF90CF90BF90AF900895EF92EB
:100D8000FF920F931F937C010E948C068C01C70178
:100D90000E94E0039C01200F311FC9011F910F9198
:100DA000FF90EF900895823000F5E82FF0E0EE0F0D
:100DB000FF1FE357F84F71836083882319F0813058
:100DC000A1F408C0809169008C7F842B8093690016
:100DD000E89A089580916900440F551F440F551FEC
:100DE000837F842B80936900E99A0895823080F490
:100DF000882319F0813021F402C0E89801C0E998F5
:100E0000E82FF0E0EE0FFF1FE357F84F118210823A
:100E100008951F920F920FB60F9211242F933F93B4
:100E20004F935F936F937F938F939F93AF93BF93F2
:100E3000EF93FF9380918D0790918E07892B29F076
:100E4000E0918D07F0918E070995FF91EF91BF9189
:100E5000AF919F918F917F916F915F914F913F9152
:100E60002F910F900FBE0F901F9018951F920F9209
:100E70000FB60F9211242F933F934F935F936F936D
:100E80007F938F939F93AF93BF93EF93FF93809143
:100E90008F0790919007892B29F0E0918F07F091AF
:100EA00090070995FF91EF91BF91AF919F918F911D
:100EB0007F916F915F914F913F912F910F900FBE56
:100EC0000F901F9018952F923F924F925F926F92C2
:100ED0007F928F929F92AF92BF92CF92DF92EF92CA
:100EE000FF920F931F93DF93CF93CDB7DEB73B01F4
:100EF0004C0119012A016D897E898F89988D6A19A3
:100F00007B098C099D09621A730A840A950AA40157
:100F100093010E94531DE218F30804091509A80162
:100F200097010E94B31D2A0D3B1D4C1D5D1DB9018B
:100F3000CA01CF91DF911F910F91FF90EF90DF9049
:100F4000CF90BF90AF909F908F907F906F905F9069
:100F50004F903F902F900895089570E0382F20E033
:100F6000622B732BCB010895EF92FF920F931F9387
:100F70007B018C01611571058105910529F420E043
:100F800030E040E050E00BC00E940119A801970139
:100F90000E94B31DAC01CB01DA019C01AD01B90186
:100FA000CA011F910F91FF90EF900895EF92FF9269
:100FB0000F931F937B018C016217730784079507BA
:100FC00064F4261B370B480B590BCA01B9010E9468
:100FD000B407E60EF71E081F191FB701C8011F91BD
:100FE0000F91FF90EF900895009729F0BC0180E0E9
:100FF00090E00E9406190895FC018481958168178C
:10100000790748F40190F081E02D309721F0E60F48
:10101000F71F8081089580E00895FC018481958107
:101020006817790730F40190F081E02DE60FF71F83
:1010300040830895FC019B0184819581681779079D
:1010400028F4608171816115710529F4109291076E
:1010500061E977E002C0620F731FCB010895FC01C4
:10106000848195816817790748F40190F081E02D1B
:10107000309721F0E60FF71F8081089580E00895F2
:10108000FC010190F081E02D309729F40895861736
:1010900009F44083319680818823C9F70895FC01C3
:1010A00080819181009729F420E030E040E050E019
:1010B00004C00E94E4199B01AC01B901CA01089562
:1010C000CF92DF92EF92FF920F931F93CF93DF9314
:1010D0006C01DC01ED90FC901197E114F10409F42E
:1010E00041C01496CD91DC9115972097D9F18701D5
:1010F00002C00F5F1F4FF8018081992787FD9095EF
:101100000E94E81D892BA9F72197CE0DDF1D01C094
:1011100021978881992787FD90950E94E81D892B4A
:1011200019F0C017D107A0F7FE013196E01BF10BB3
:10113000D6011596FC93EE9314972D913C912017B0
:10114000310728F4C901B801AF010E940B1AD6017A
:10115000ED91FC91119714968D919C911597E80F44
:10116000F91F1082DF91CF911F910F91FF90EF90A7
:10117000DF90CF900895CF93DF93FC01C081D181A0
:10118000209739F409C0992787FD90950E94F81D92
:10119000899388818823B9F7DF91CF910895CF9300
:1011A000DF93FC01C081D181209739F409C09927D0
:1011B00087FD90950E94F01D899388818823B9F757
:1011C000DF91CF910895EF92FF920F931F93CF93EA
:1011D000DF93FC01DB018617970739F12481358104
:1011E00014968D919C9115972817390701F5232B9B
:1011F000E1F0E080F180CD91DC9113C0992787FD6B
:1012000090950E94F01D8C018881992787FD90950B
:101210000E94F01D0817190751F40894E11CF11CF5
:101220002196F7018081882349F781E001C080E0A1
:10123000DF91CF911F910F91FF90EF900895AF92A2
:10124000BF92CF92DF92EF92FF920F931F93CF93B3
:10125000DF93FC015B017A01DB0114962D913C9137
:1012600015972115310559F184819581009739F140
:101270008217930720F14817590720F07C01089442
:10128000E108F10800811181C801CFEFDFEF6801AB
:10129000CE0CDF1C10C0F501608171810E94691ABB
:1012A0009C01009771F0801B910BE816F90608F07D
:1012B000EC01C9010196C816D90668F702C0CFEF44
:1012C000DFEFCE01DF91CF911F910F91FF90EF9053
:1012D000DF90CF90BF90AF900895FC01DB01448177
:1012E000558114968D919C911597481B590BCF01F0
:1012F0000E941F090895CF93DF93FC01DB018481D5
:1013000095814817590760F4C081D1816D917C9116
:10131000CE01840F951F0E94691A9C01009719F451
:101320002FEF3FEF02C02C1B3D0BC901DF91CF9186
:10133000089540E050E00E947B090895DF92EF920B
:10134000FF920F931F93CF93DF93EC018C819D81CC
:1013500048175907C8F47A010894E11CF11CE88188
:10136000F981EE0DFF1DD080108208811981772749
:1013700067FD7095C8010E945E1A9C010E0D1F1D2D
:10138000F801D082009719F4EFEFFFEF05C08881D4
:101390009981F901E81BF90BCF01DF91CF911F91E2
:1013A0000F91FF90EF90DF900895FC0144815581EB
:1013B000415050400E949E090895CF93DF93FC0155
:1013C000848195814817590768F4C081D1817727B6
:1013D00067FD7095CE01840F951F0E94261A9C010F
:1013E000009719F42FEF3FEF02C02C1B3D0BC901F2
:1013F000DF91CF91089540E050E00E94DD0908950B
:101400000F931F93CF93DF93FC018B01411551057F
:10141000F9F061157105E1F084819581281739078C
:1014200018F0FB01108214C041505040EC01C21B67
:10143000D30B4C175D0708F4EA0160817181620FDC
:10144000731FC801AE010E944F1AC00FD11F18822E
:10145000DF91CF911F910F910895FC01DB01248151
:10146000358114964D915C91159724173507A8F096
:1014700080819181009789F06D917C916115710552
:1014800061F0241B350B820F931F0E94311A9C01BF
:1014900080E0232B19F481E0089580E00895DC01B9
:1014A000FB0114968D919C911597892B31F4611550
:1014B0007105A9F090E0808108C00D90BC91A02D2D
:1014C0006115710529F490E08C91882349F407C0D7
:1014D000CD010E94311A9C0190E0232B09F491E088
:1014E000892F0895CF93DF939C01FB01EC01A88124
:1014F000B981109729F06081718161157105D1F46E
:10150000C081D181209759F084819581892B39F050
:10151000888190E022273327281B390B12C01097AF
:1015200071F0F90184819581892B49F08C91282FE4
:1015300030E007C0CD010E94311A9C0102C020E0BA
:1015400030E0C901DF91CF9108950E94720A892F7E
:101550008095881F8827881F08950E94720A20E0BE
:10156000181619060CF021E0822F08950E94720AC5
:1015700020E0181619060CF421E0822F08950E942D
:10158000720A892F881F8827881F0895FC01DB01B4
:101590002481358114968D919C91159728173907D0
:1015A00011F020E007C0CF010E94720A20E0892BD1
:1015B00009F421E0822F0895FC01DB0114962D919E
:1015C0003C91159784819581821B930B8417950715
:1015D000A0F080819181009781F06D917C916115DF
:1015E000710559F0840F951FA9010E94411A9C01B1
:1015F00080E0232B19F481E0089580E00895FC0138
:10160000DB012481358114968D919C9115972817C3
:10161000390710F480E00895CF0140E050E00E94C7
:10162000DC0A08950F931F93CF93DF93EC018B0196
:101630006F5F7F4F888199810E940F19009711F485
:1016400080E005C0998388831B830A8381E0DF9152
:10165000CF911F910F9108952F923F924F925F92D9
:101660006F927F928F929F92AF92BF92CF92DF92B2
:10167000EF92FF920F931F93CF93DF935C012B01A7
:101680004A01DC0114960D911C9115970115110565
:1016900009F4D4C0FB01C480D580C114D10409F47D
:1016A000CDC0DA0114966D907C9015976C187D086A
:1016B000FC01E080F1806114710491F01BC0D40141
:1016C0006C9111967C91119714964D915C911597A0
:1016D0008C2F0E940B1AF401E480F580EC0EFD1EA5
:1016E000D2016D917C91C7010E94691AEC010097AB
:1016F00031F7A4C077FE02C067012EC0FB01208035
:101700003180E8013CC08E010E191F09C601B701E6
:10171000A8010E940B1A0C0D1D1DD4016C9111968D
:101720007C91119714964D915C911597C8010E9478
:101730000B1AF401C480D580C00ED11ED2011496BC
:10174000ED90FC901597EC0EFD1EF50184819581BE
:10175000860D971D95838483D2016D917C91C7017D
:101760000E94691AEC01009771F6C601B7010E9448
:101770003A1A64C07B01EC0CFD1CC60DD71DC701D5
:10178000B1010E94691ABC010097A1F7C017D107E7
:1017900009F454C0F501828193818C179D0708F0EC
:1017A00044C0C501BE010E94120B8823F1F546C05A
:1017B000C501B201A9010E941F09EC0197FD3EC0BD
:1017C000D5016D917C911197F201848195818C0FE7
:1017D0009D1F680F791F14964D915C911597481BBA
:1017E000590BCB01860D971D0E94141AD501149632
:1017F0008D919C911597860D971D15969C938E93B0
:101800001497ED91FC911197E80FF91F10822D911B
:101810003C912C0F3D1FF401608171814481558101
:10182000C9010E940B1A9E0105C0D50114962D9185
:101830003C9115972150304037FFBACFDF91CF91BF
:101840001F910F91FF90EF90DF90CF90BF90AF90DE
:101850009F908F907F906F905F904F903F902F90D0
:101860000895CF93DF93EC0188819981892B29F02A
:101870008A819B818617970760F4CE010E94120B24
:10188000882341F08C819D81892B19F4E881F981AD
:10189000108281E0DF91CF910895EF92FF920F9334
:1018A0001F93CF93DF93EC017B016C817D81E11469
:1018B000F104C1F04115510599F08A01060F171F77
:1018C000B8010E94310C882369F0888199812C81AC
:1018D0003D81820F931FB7010E943A1A1D830C832A
:1018E00081E001C080E0DF91CF911F910F91FF90C7
:1018F000EF900895EF92FF920F931F93DF93CF9392
:10190000CDB7DEB72B970FB6F894DEBF0FBECDBFB5
:101910007C01CB01BA018E010F5F1F4FA8012AE0A5
:1019200030E00E94ED1AF80101900020E9F73197AC
:10193000E01BF10BC701B801AF010E944D0C2B96C3
:101940000FB6F894DEBF0FBECDBFCF91DF911F91D0
:101950000F91FF90EF900895EF92FF920F931F93D6
:10196000DF93CF93CDB7DEB72C970FB6F894DEBFD9
:101970000FBECDBF7C01CB01BA018E010F5F1F4F9F
:10198000A8012AE030E00E94A41AF801019000208A
:10199000E9F73197E01BF10BC701B801AF010E94D5
:1019A0004D0C2C960FB6F894DEBF0FBECDBFCF9175
:1019B000DF911F910F91FF90EF900895EF92FF92AA
:1019C0000F931F93DF93CF9300D000D000D0CDB7FB
:1019D000DEB77C01CB018E010F5F1F4FB8014AE0DB
:1019E00050E00E94121BF80101900020E9F73197A6
:1019F000E01BF10BC701B801AF010E944D0C269608
:101A00000FB6F894DEBF0FBECDBFCF91DF911F910F
:101A10000F91FF90EF900895EF92FF920F931F9315
:101A2000DF93CF93CDB7DEB727970FB6F894DEBF1D
:101A30000FBECDBF7C01CB018E010F5F1F4FB801E0
:101A40004AE050E00E94831AF80101900020E9F773
:101A50003197E01BF10BC701B801AF010E944D0C9B
:101A600027960FB6F894DEBF0FBECDBFCF91DF91A2
:101A70001F910F91FF90EF900895EF92FF920F93B7
:101A80001F93DF93CF9300D000D0CDB7DEB77C019A
:101A9000862F90E08E010F5F1F4FB8014AE050E0A3
:101AA0000E94831AF80101900020E9F73197E01BAA
:101AB000F10BC701B801AF010E944D0C0F900F90C0
:101AC0000F900F90CF91DF911F910F91FF90EF90AA
:101AD0000895DF93CF9300D0CDB7DEB769831A8224
:101AE000BE016F5F7F4F41E050E00E944D0C0F90B0
:101AF0000F90CF91DF9108956115710511F480E089
:101B00000895DB010D900020E9F71197A61BB70B94
:101B1000AD010E944D0C0895FB01608171814481EB
:101B200055810E944D0C0895CF93DF93EC0188817D
:101B30009981009711F00E945618198218821D820F
:101B40001C821B821A82DF91CF9108950F931F93FD
:101B5000182F092F0E947A0C882321F4812F902FAF
:101B60000E94940D812F902F1F910F9108950F9334
:101B70001F93182F092F0E94AC0C882321F4812F6A
:101B8000902F0E94940D812F902F1F910F910895F7
:101B90000F931F93182F092F0E94DE0C882321F426
:101BA000812F902F0E94940D812F902F1F910F91C4
:101BB00008950F931F93182F092F0E940C0D88234F
:101BC00021F4812F902F0E94940D812F902F1F912F
:101BD0000F9108950F931F93182F092F0E943D0D09
:101BE000882321F4812F902F0E94940D812F902F14
:101BF0001F910F9108950F931F93182F092F0E9483
:101C0000690D882321F4812F902F0E94940D812F3C
:101C1000902F1F910F9108950F931F93182F092F45
:101C20006115710561F0DB010D900020E9F7119756
:101C3000A61BB70BAD010E944D0C882321F4812F08
:101C4000902F0E94940D812F902F1F910F91089536
:101C50000F931F93182F092FFB016081718144811D
:101C600055810E944D0C882321F4812F902F0E94D2
:101C7000940D812F902F1F910F910895EF92FF9255
:101C80000F931F93CF93DF93EC017B018A01BA017D
:101C90000E94310C882321F4CE010E94940D07C0CC
:101CA0001D830C8388819981B7010E943A1ACE0165
:101CB000DF91CF911F910F91FF90EF900895CF93F7
:101CC000DF93EC01198218821B821A821D821C820A
:101CD0001E826115710551F0DB010D900020E9F7BE
:101CE0001197A61BB70BAD010E943E0EDF91CF915D
:101CF0000895CF93DF93EC01198218821B821A8218
:101D00001D821C821E826115710551F0DB010D9050
:101D10000020E9F71197A61BB70BAD010E943E0EFC
:101D2000DF91CF9108950F931F93182F092F6115FD
:101D3000710559F0DB010D900020E9F71197A61B02
:101D4000B70BAD010E943E0E02C00E94940D812F80
:101D5000902F1F910F910895EF92FF920F931F9371
:101D6000DF93CF93CDB7DEB7A1970FB6F894DEBF60
:101D70000FBECDBF8C01FC01118210821382128232
:101D8000158214821682CB01BA017E010894E11CEF
:101D9000F11CA70130E00E94ED1AC801B7010E94B2
:101DA000930EA1960FB6F894DEBF0FBECDBFCF91B4
:101DB000DF911F910F91FF90EF900895EF92FF92A6
:101DC0000F931F93DF93CF93CDB7DEB7A1970FB6D5
:101DD000F894DEBF0FBECDBF8C01FC0111821082D2
:101DE00013821282158214821682CB01BA017E01FF
:101DF0000894E11CF11CA70130E00E94ED1AC80113
:101E0000B7010E94930EA1960FB6F894DEBF0FBEE5
:101E1000CDBFCF91DF911F910F91FF90EF9008956B
:101E2000EF92FF920F931F93DF93CF93CDB7DEB75F
:101E3000A2970FB6F894DEBF0FBECDBF8C01FC0198
:101E40001182108213821282158214821682CB01B3
:101E5000BA017E010894E11CF11CA70130E00E9448
:101E6000A41AC801B7010E94930EA2960FB6F89467
:101E7000DEBF0FBECDBFCF91DF911F910F91FF90BD
:101E8000EF900895EF92FF920F931F93DF93CF93FC
:101E9000CDB7DEB7A2970FB6F894DEBF0FBECDBFA9
:101EA0008C01FC011182108213821282158214822D
:101EB0001682CB01BA017E010894E11CF11CA70136
:101EC00030E00E94A41AC801B7010E94930EA296A6
:101ED0000FB6F894DEBF0FBECDBFCF91DF911F913B
:101EE0000F91FF90EF900895EF92FF920F931F9341
:101EF000DF93CF93CDB7DEB761970FB6F894DEBF0F
:101F00000FBECDBF8C01CB01F8011182108213826C
:101F100012821582148216827E010894E11CF11C43
:101F2000B70150E00E94121BC801B7010E94930E36
:101F300061960FB6F894DEBF0FBECDBFCF91DF9193
:101F40001F910F91FF90EF900895EF92FF920F93E2
:101F50001F93DF93CF93CDB7DEB761970FB6F89499
:101F6000DEBF0FBECDBF8C01CB01F8011182108204
:101F7000138212821582148216827E010894E11C5B
:101F8000F11CB70150E00E94121BC801B7010E946A
:101F9000930E61960FB6F894DEBF0FBECDBFCF9102
:101FA000DF911F910F91FF90EF900895EF92FF92B4
:101FB0000F931F93DF93CF93CDB7DEB762970FB622
:101FC000F894DEBF0FBECDBF8C01CB01F8011182AA
:101FD0001082138212821582148216827E01089466
:101FE000E11CF11CB70150E00E94831AC801B7013F
:101FF0000E94930E62960FB6F894DEBF0FBECDBF5F
:10200000CF91DF911F910F91FF90EF900895EF9284
:10201000FF920F931F93DF93CF93CDB7DEB76297F5
:102020000FB6F894DEBF0FBECDBF8C01CB01F80117
:1020300011821082138212821582148216827E010E
:102040000894E11CF11CB70150E00E94831AC801FA
:10205000B7010E94930E62960FB6F894DEBF0FBED2
:10206000CDBFCF91DF911F910F91FF90EF90089519
:10207000EF92FF920F931F93DF93CF93CDB7DEB70D
:1020800029970FB6F894DEBF0FBECDBF8C01862F07
:10209000F801118210821382128215821482168234
:1020A00090E07E010894E11CF11CB70150E00E9411
:1020B000121BC801B7010E94930E29960FB6F8941F
:1020C000DEBF0FBECDBFCF91DF911F910F91FF906B
:1020D000EF900895EF92FF920F931F93DF93CF93AA
:1020E000CDB7DEB729970FB6F894DEBF0FBECDBFD0
:1020F0008C01862FF80111821082138212821582C0
:102100001482168290E07E010894E11CF11CB70154
:1021100050E00E94121BC801B7010E94930E29963D
:102120000FB6F894DEBF0FBECDBFCF91DF911F91E8
:102130000F91FF90EF900895DF93CF9300D0CDB72C
:10214000DEB7FC0111821082138212821582148282
:10215000168269831A82BE016F5F7F4F0E94930EC1
:102160000F900F90CF91DF910895DF93CF9300D020
:10217000CDB7DEB7FC011182108213821282158264
:102180001482168269831A82BE016F5F7F4F0E949C
:10219000930E0F900F90CF91DF910895BF92CF9241
:1021A000DF92EF92FF920F931F93CF93DF93082F4D
:1021B000B92E6B017A01E9012417350710F4EA0101
:1021C0007901802F9B2D6AE271E00E945F0ED6019B
:1021D00014968D919C9115978E159F05D0F08C17B4
:1021E0009D0708F4EC01D601ED91FC911197EC0FDD
:1021F000FD1F108110826D917C916E0D7F1D802FCF
:102200009B2D0E94930ED601ED91FC91EC0FFD1FCA
:102210001083802F9B2DDF91CF911F910F91FF9005
:10222000EF90DF90CF90BF9008950F931F938C0194
:10223000FB01248135810E94CE10C8011F910F91AE
:102240000895CF93DF93EC01FB018617970761F0A8
:10225000608171816115710529F0448155810E9469
:102260003E0E02C00E94940DCE01DF91CF910895E1
:10227000FC0111821082138212821582148216824E
:102280000E9421110895FC01118210821382128292
:102290001582148216820E9421110895FC0180810A
:1022A00091810E9456180895FC01808191810E94BD
:1022B00056180895FC0120E030E08081882311F455
:1022C00021E030E0C9010895FC0181E08083089598
:1022D000089508950E94561808950E94AC17089515
:1022E0001F920F920FB60F9211242F933F938F934B
:1022F0009F93AF93BF938091960790919707A0917A
:102300009807B091990730919A070196A11DB11DC8
:10231000232F2D5F2D3720F02D570196A11DB11DC4
:1023200020939A078093960790939707A093980716
:10233000B09399078091920790919307A091940789
:10234000B09195070196A11DB11D809392079093BE
:102350009307A0939407B0939507BF91AF919F9176
:102360008F913F912F910F900FBE0F901F90189556
:102370008FB7F8942091960730919707409198076E
:10238000509199078FBFB901CA0108959FB7F8947A
:1023900020919207309193074091940750919507AF
:1023A00086B5A89B06C08F3F21F02F5F3F4F4F4F50
:1023B0005F4F9FBF542F432F322F2227280F311DED
:1023C000411D511D82E0220F331F441F551F8A9566
:1023D000D1F7B901CA0108959B01AC017FB7F89408
:1023E0008091920790919307A0919407B0919507DF
:1023F00066B5A89B05C06F3F19F00196A11DB11DE0
:102400007FBFBA2FA92F982F8827860F911DA11D56
:10241000B11D62E0880F991FAA1FBB1F6A95D1F7F3
:10242000BC012DC0FFB7F89480919207909193075B
:10243000A0919407B0919507E6B5A89B05C0EF3F22
:1024400019F00196A11DB11DFFBFBA2FA92F982F1A
:1024500088278E0F911DA11DB11DE2E0880F991FE5
:10246000AA1FBB1FEA95D1F7861B970B885E934086
:10247000C8F2215030404040504068517C4F2115F7
:1024800031054105510571F60895019739F0880F1E
:10249000991F880F991F02970197F1F70895789473
:1024A00084B5826084BD84B5816084BD85B5826059
:1024B00085BD85B5816085BDEEE6F0E080818160F7
:1024C0008083E1E8F0E010828081826080838081F7
:1024D00081608083E0E8F0E0808181608083E1EBCF
:1024E000F0E0808184608083E0EBF0E080818160B7
:1024F0008083EAE7F0E0808184608083808182606D
:102500008083808181608083808180688083109255
:10251000C100089580932B010895982F8E3008F004
:102520009E50977080912B018295880F880F807C38
:10253000892B80937C0080917A00806480937A005C
:1025400080917A0086FDFCCF20917800409179003F
:10255000942F80E030E0282B392BC90108951F9378
:10256000CF93DF93182FEB0161E00E940F132097A8
:1025700009F44AC0CF3FD10509F449C0E12FF0E08A
:10258000E255FF4F84918330C1F0843028F48130CC
:1025900051F08230B1F50CC0863019F1873049F125
:1025A000843079F514C084B5806884BDC7BD33C05C
:1025B00084B5806284BDC8BD2EC0809180008068D3
:1025C00080938000D0938900C093880024C08091BC
:1025D0008000806280938000D0938B00C0938A003B
:1025E0001AC08091B00080688093B000C093B3009F
:1025F00012C08091B00080628093B000C093B4009C
:102600000AC0C038D1051CF4812F60E002C0812FC0
:1026100061E00E943513DF91CF911F910895482FFB
:1026200050E0CA0186569F4FFC0124914A575F4FE4
:10263000FA0184918823C1F0E82FF0E0EE0FFF1F2C
:10264000E859FF4FA591B491662341F49FB7F894E0
:102650008C91209582238C939FBF08959FB7F89407
:102660008C91822B8C939FBF0895482F50E0CA0114
:1026700082559F4FFC012491CA0186569F4FFC0151
:1026800094914A575F4FFA013491332309F440C0C3
:10269000222351F1233071F0243028F42130A1F0AD
:1026A000223011F514C02630B1F02730C1F02430AB
:1026B000D9F404C0809180008F7703C0809180009E
:1026C0008F7D8093800010C084B58F7702C084B561
:1026D0008F7D84BD09C08091B0008F7703C0809149
:1026E000B0008F7D8093B000E32FF0E0EE0FFF1F6E
:1026F000EE58FF4FA591B4912FB7F894662321F4BB
:102700008C919095892302C08C91892B8C932FBF3B
:102710000895682F70E0CB0182559F4FFC012491F2
:10272000CB0186569F4FFC0144916A577F4FFB01B6
:102730009491992319F420E030E03CC0222351F118
:10274000233071F0243028F42130A1F0223011F52B
:1027500014C02630B1F02730C1F02430D9F404C0C1
:10276000809180008F7703C0809180008F7D80935F
:10277000800010C084B58F7702C084B58F7D84BD82
:1027800009C08091B0008F7703C08091B0008F7D29
:102790008093B000892F90E0880F991F84589F4F35
:1027A000FC01A591B4918C9120E030E0842311F0DC
:1027B00021E030E0C9010895FC0180919B078C3035
:1027C00090F480838F5F80939B07815090E0FC01A1
:1027D000EE0FFF1FE80FF91FE456F84F88EB9BE060
:1027E0009283818308958FEF80830895FC01809107
:1027F0009B078C3090F480838F5F80939B07815080
:1028000090E0FC01EE0FFF1FE80FF91FE456F84FB0
:1028100088EB9BE09283818308958FEF80830895F6
:10282000DC018C9190E0FC01EE0FFF1FE80FF91F17
:10283000E456F84F80818F7B80838C916CE00E94FE
:10284000721D90E0AC01440F551F480F591F440FF3
:10285000551F440F551F20E030E0C901840F951F1C
:10286000FC01EE0FFF1FE80FF91FE456F84F8081BF
:1028700086FD05C02F5F3F4F2C30310571F708955D
:10288000FC0120812C30B8F58181992787FD909536
:1028900048E850E0481B590B440F551F440F551F83
:1028A0006417750784F08281992787FD909548E524
:1028B00052E0481B590B440F551F440F551F641716
:1028C00075070CF4AB0142505040CA01AA2797FD8E
:1028D000A095BA2F880F991FAA1FBB1F4FB7F89456
:1028E00030E0F901EE0FFF1FE20FF31FE456F84F3F
:1028F000928381834FBF0895FC0180818F3F19F43B
:1029000020E030E016C090E0FC01EE0FFF1FE80F62
:10291000F91FE456F84F2181328183E0220F331FE3
:102920008A95E1F7B4E036952795BA95E1F72E5FE1
:102930003F4FC9010895FC01808190E0FC01EE0F3A
:10294000FF1FE80FF91FE456F84F808182958695A6
:102950008695817009F081E00895AF92BF92CF9281
:10296000DF92EF92FF920F931F938C010E947C14D1
:1029700000D000D00196AA2797FDA095BA2FF801A4
:102980006181772767FD709528E830E0261B370BBB
:10299000220F331F220F331F442737FD4095542F3A
:1029A0006281772767FD7095E8E5EE2EE2E0FE2E66
:1029B000E61AF70AEE0CFF1CEE0CFF1C0027F7FCD2
:1029C0000095102F64EBA62EB12CC12CD12CEDB7A5
:1029D000FEB7A182B282C382D482BC01CD01AA24F7
:1029E000BB2465010E9463070F900F900F900F901A
:1029F000CB011F910F91FF90EF90DF90CF90BF9090
:102A0000AF900895AF92BF92CF92DF92EF92FF9274
:102A10000F931F93CF93DF93EC019B0182E0603211
:102A200078070CF048C077FF03C020E030E005C015
:102A3000653B710514F024EB30E000D000D0B90103
:102A4000882777FD8095982F2981332727FD30959A
:102A5000E8E8AE2EB12CA21AB30AAA0CBB1CAA0C31
:102A6000BB1CCC24B7FCC094DC2CEA81FF27E7FD1B
:102A7000F09528E532E02E1B3F0B220F331F220F6B
:102A8000331F442737FD4095542FEDB7FEB7218300
:102A900032834383548320E030E040E050E004EB95
:102AA000E02EF12C012D112D0E9463079B010F9048
:102AB0000F900F900F90CE01B9010E944014DF914A
:102AC000CF911F910F91FF90EF90DF90CF90BF902B
:102AD000AF900895CF92DF92EF92FF921F93CF9322
:102AE000DF93EC01162F7A01690188818C3008F0A0
:102AF00064C0862F61E00E940F13888190E0FC0182
:102B0000EE0FFF1FE80FF91FE456F84F1F73808187
:102B1000807C812B808380E292E08E199F0964E0A3
:102B200070E00E947E1D698380E699E08C199D0902
:102B300064E070E00E947E1D6A83A8818A2F6CE0A9
:102B40000E94721D682F70E0AB01440F551F460FA5
:102B5000571F440F551F440F551F20E030E0C90197
:102B6000840F951FFC01EE0FFF1FE80FF91FE456BD
:102B7000F84F808186FD15C02F5F3F4F2C30310507
:102B800071F724C01092800082E08093810010923F
:102B9000850010928400B19A80916F0082608093CA
:102BA0006F008A2F90E0FC01EE0FFF1FE80FF91F66
:102BB000E456F84F8081806480838881DF91CF91D3
:102BC0001F91FF90EF90DF90CF900895672BD1F287
:102BD000E8CF40E252E020E639E00E946A1508950D
:102BE0001F920F920FB60F9211242F933F934F9382
:102BF0005F936F937F938F939F93AF93BF93EF9365
:102C0000FF938091C00787FF05C010928500109246
:102C100084002BC02091C007332727FD3095809179
:102C20009B0790E02817390704F58091C007992782
:102C300087FD9095FC01EE0FFF1FE80FF91FE4568A
:102C4000F84F808186FF11C08091C007992787FDCA
:102C50009095FC01EE0FFF1FE80FF91FE456F84FA7
:102C600080818F7360E00E9435138091C0078F5F71
:102C70008093C0072091C007332727FD30958091AE
:102C80009B0790E0281739070CF04EC08091C007D1
:102C90008C300CF049C020918400309185008091E7
:102CA000C007992787FD9095FC01EE0FFF1FE80FE5
:102CB000F91FE456F84F81819281280F391F309314
:102CC0008900209388008091C007992787FD9095FF
:102CD000FC01EE0FFF1FE80FF91FE456F84F80814B
:102CE00086FF2AC08091C007992787FD9095FC0137
:102CF000EE0FFF1FE80FF91FE456F84F80818F7326
:102D000061E00E94351318C080E49CE905C0809101
:102D100084009091850004969093890080938800A8
:102D20008FEF8093C00708C0809184009091850048
:102D300084549C4948F3EBCFFF91EF91BF91AF9141
:102D40009F918F917F916F915F914F913F912F91C3
:102D50000F900FBE0F901F90189581EC97E00E9486
:102D6000F613089593E0899FC00111248F53984F63
:102D70000E94AD14089593E0899FC00111248F53E0
:102D8000984F70E00E940215089593E0899FC0015A
:102D900011248F53984F70E00E94E91508958EE634
:102DA00097E00E94800308950F931F93CF93DF93C2
:102DB0008A01E9018EE697E00E94B902F80180835A
:102DC000198218828F5F9F4F21F081E090E09983F4
:102DD0008883DF91CF911F910F9108958EE697E040
:102DE0000E949C010895AF92BF92CF92DF92EF9222
:102DF000FF920F931F93CF93DF930E944F120E9475
:102E00003B17C0912C01D0912D01AA24BB24650150
:102E100015C00E94C6117B018C01DC01CB018A190F
:102E20009B09AC09BD0980519742A040B04030F0E9
:102E30000E9456170E9431175701680188819981B5
:102E4000892B39F30E943A1780E090E0DF91CF910F
:102E50001F910F91FF90EF90DF90CF90BF90AF90B8
:102E600008958091C6079091C7079093C9078093F2
:102E7000C807089508951092C5071092C4071092CC
:102E8000C7071092C6071092C9071092C807809111
:102E9000DA066091CE060E94C5168091D406909104
:102EA000D5069093C9078093C8070895EF92FF92C3
:102EB0000F931F93CF93DF93C091C807D091C90799
:102EC000FE01EE0FFF1FEE0FFF1FE25DFE4FE080E1
:102ED000F18002811381C801B70120E030E040E8B1
:102EE00053E40E949D1B87FD02C06FEF10C0C80114
:102EF000B70120E030E040E050E00E94EC1C87FF8A
:102F000002C060E004C0C801B7010E940E1C80919D
:102F1000DA060E94BB162091D6063091D7062C0FF8
:102F20003D1F8091D8069091D9068217930748F4E7
:102F30008091D2069091D3069093C7078093C607DD
:102F400004C03093C7072093C607DF91CF911F912C
:102F50000F91FF90EF900895CF93DF93BC018230E3
:102F6000910510F462E070E0A091CC07B091CD071C
:102F7000ED01E0E0F0E040E050E021C0888199817F
:102F80008617970769F48A819B81309719F093839C
:102F9000828304C09093CD078093CC07FE0134C098
:102FA0006817790738F44115510519F0841795070A
:102FB00008F4AC01FE018A819B819C01E901209704
:102FC000E9F641155105A9F1CA01861B970B049733
:102FD00008F4BA01E0E0F0E02AC08D919C911197CD
:102FE00084179507F9F46417750781F412968D918B
:102FF0009C911397309719F09383828304C0909328
:10300000CD078093CC07FD0132964CC0CA01861BC8
:10301000970BFD01E80FF91F6193719302978D9350
:103020009C9340C0FD01828193819C01D90110973E
:10303000A1F68091CA079091CB07892B41F480912A
:10304000DD069091DE069093CB078093CA074091EE
:10305000DF065091E0064115510541F44DB75EB7CA
:103060008091DB069091DC06481B590B2091CA0722
:103070003091CB07CA01821B930B8617970780F00C
:10308000AB014E5F5F4F8417950750F0420F531FFF
:103090005093CB074093CA07F9016193719302C023
:1030A000E0E0F0E0CF01DF91CF910895CF93DF937F
:1030B000009709F450C0EC0122971B821A82A0915C
:1030C000CC07B091CD07109709F140E050E0AC1764
:1030D000BD0708F1BB83AA83FE0121913191E20F64
:1030E000F31FAE17BF0779F48D919C911197280FAC
:1030F000391F2E5F3F4F3983288312968D919C9103
:1031000013979B838A834115510571F4D093CD07A2
:10311000C093CC0720C012968D919C911397AD015E
:10312000009711F0DC01D3CFFA01D383C283219140
:103130003191E20FF31FCE17DF0769F4888199817F
:10314000280F391F2E5F3F4FFA01318320838A8178
:103150009B8193838283DF91CF910895A0E0B0E0BB
:10316000E4EBF8E10C940B1EEC01A880B980CA8056
:10317000DB80A114B104C104D10441F484E2A82E7F
:1031800089EDB82E8BE5C82E87E0D82EC601B50193
:103190002DE133EF41E050E00E94B31D27EA31E416
:1031A00040E050E00E94531D7B018C01C601B50137
:1031B0002DE133EF41E050E00E94B31DCA01B90197
:1031C0002CEE34EF4FEF5FEF0E94531D6E0D7F1D0D
:1031D000801F911F97FF04C061507040804090484D
:1031E000688379838A839B839B01AC015F77B901F4
:1031F000CA01CDB7DEB7EAE00C94271E0E94AE18D4
:10320000089581EE96E00E94AE1808956093E1065D
:103210007093E2068093E3069093E4060895A0E09D
:10322000B0E0E5E1F9E10C94051E6C01009729F48A
:10323000CB010E94AC176C01C1C08EEF882E8FEFBE
:10324000982E8C0C9D1C8601060F171F081519055A
:1032500008F4B2C0F401A081B181A617B707B8F095
:10326000A530B10508F4AAC0CD01049786179707C9
:1032700008F4A4C01297A61BB70BF801A193B19351
:10328000D4016D937C93CF010E94561897C07B01A7
:10329000EA1AFB0AEEEFFFEFEE0EFF1E36016A0E92
:1032A0007B1EC091CC07D091CD0744245524AA247D
:1032B000BB244AC0C615D705E1F5488159814E1592
:1032C0005F05B8F1CA0104978E159F05B0F41296F8
:1032D000A40FB51FF401B183A0832A813B8141145F
:1032E000510431F0D20113963C932E93129766C08D
:1032F0003093CD072093CC0761C08A819B81F80170
:1033000093838283425050404E195F09518340831A
:103310004114510431F0D20113961C930E9312976D
:1033200004C01093CD070093CC07F4017183608330
:1033300045C088819981A816B90608F45C012E0160
:103340008A819B819C01E901209709F0B3CF80918C
:10335000CA079091CB0786159705E9F4A616B7061C
:10336000D0F42091DF063091E0062115310541F4BB
:103370002DB73EB78091DB069091DC06281B390BF8
:1033800002171307C8F41093CB070093CA07D401A0
:103390006D937C9313C0CB010E94AC17EC01009796
:1033A00059F0F40140815181B6010E940B1AC60107
:1033B0000E9456186E0102C0CC24DD24C601CDB790
:1033C000DEB7E0E10C94211E1F93FC0199278827AA
:1033D000BC01E89411911032E9F3193010F01E305D
:1033E000C8F31B3251F01D3249F4689406C00E94A4
:1033F000D81A610F711D811D911D119110531A3042
:10340000B0F33EF490958095709561957F4F8F4F06
:103410009F4F1F910895FB01DC0102C001900D92A6
:1034200041505040D8F708956817790768F4FB01B8
:10343000DC01E40FF51FA40FB51F02C002900E922D
:1034400041505040D8F708950C940B1AFC0181911B
:10345000861721F08823D9F7992708953197CF014E
:103460000895FB01DC018D91019080190110D9F3C1
:10347000990B0895FB01DC0101900D920020E1F70A
:103480000895FB01DC014150504030F08D910190D6
:10349000801919F40020B9F7881B990B0895FB01D6
:1034A000DC014150504048F001900D920020C9F7D6
:1034B00001C01D9241505040E0F70895FC0181E0A9
:1034C00090E00190061609F4CF010020D1F7019792
:1034D0000895FB0151915523A9F0BF01DC014D91E5
:1034E00045174111E1F759F4CD010190002049F051
:1034F0004D9140154111C9F3FB014111EFCF81E01E
:1035000090E001970895FB019F01E8944230C4F0D8
:103510004532B4F44A3029F497FB1EF49095819516
:103520009F4F642F77270E94CE1D805D8A330CF059
:10353000895D8193CB010097A1F716F45DE2519369
:103540001082C9010C94281BFA01CF93FF93EF93CB
:10355000223044F1253234F5C22FE894CA3049F4C0
:1035600097FB3EF490958095709561957F4F8F4FB6
:103570009F4F2C2F332744275527FF93EF930E940B
:10358000911DEF91FF91605D6A330CF0695D61936D
:10359000B901CA01605070408040904051F716F464
:1035A000CDE2C19310828F919F91CF910C94281BF3
:1035B000592F482F372F262F660F771F881F991FE7
:1035C000660F771F881F991F620F731F841F951F37
:1035D000660F771F881F991F0895FA01CF93FF93F5
:1035E000EF932230CCF02532BCF4C22F2C2F33279E
:1035F00044275527FF93EF930E94911DEF91FF9170
:10360000605D6A330CF0695D6193B901CA01605075
:1036100070408040904051F710828F919F91CF91E0
:103620000C94281BFB019F01423074F0453264F476
:10363000642F77270E94CE1D805D8A330CF0895D50
:103640008193CB010097A1F71082C9010C94281B2C
:10365000DC01FC01672F71917723E1F7329704C0F9
:103660007C916D9370836291AE17BF07C8F3089584
:103670005058BB27AA270ED075C166D130F06BD148
:1036800020F031F49F3F11F41EF45BC10EF4E0957D
:10369000E7FB51C1E92F77D180F3BA1762077307AF
:1036A0008407950718F071F49EF58FC10EF4E0952C
:1036B0000B2EBA2FA02D0B01B90190010C01CA01EC
:1036C000A0011124FF27591B99F0593F50F4503E97
:1036D00068F11A16F040A22F232F342F4427585F89
:1036E000F3CF469537952795A795F0405395C9F7A1
:1036F0007EF41F16BA0B620B730B840BBAF0915059
:10370000A1F0FF0FBB1F661F771F881FC2F70EC0F7
:10371000BA0F621F731F841F48F4879577956795CA
:10372000B795F7959E3F08F0B3CF9395880F08F0B3
:103730009927EE0F979587950895D9D008F481E0E1
:1037400008950CD00FC107D140F0FED030F021F425
:103750005F3F19F0F0C0511139C1F3C014D198F393
:103760009923C9F35523B1F3951B550BBB27AA2702
:1037700062177307840738F09F5F5F4F220F331F74
:10378000441FAA1FA9F333D00E2E3AF0E0E830D040
:1037900091505040E695001CCAF729D0FE2F27D043
:1037A000660F771F881FBB1F261737074807AB0711
:1037B000B0E809F0BB0B802DBF01FF2793585F4F86
:1037C0002AF09E3F510568F0B6C000C15F3FECF3A0
:1037D000983EDCF3869577956795B795F7959F5F4B
:1037E000C9F7880F911D9695879597F90895E1E09F
:1037F000660F771F881FBB1F621773078407BA07FE
:1038000020F0621B730B840BBA0BEE1F88F7E09558
:10381000089504D06894B111D9C00895BCD088F03F
:103820009F5790F0B92F9927B751A0F0D1F0660FAC
:10383000771F881F991F1AF0BA95C9F712C0B130C7
:1038400081F0C3D0B1E00895C0C0672F782F8827DA
:10385000B85F39F0B93FCCF3869577956795B39506
:10386000D9F73EF490958095709561957F4F8F4F75
:103870009F4F0895E89409C097FB3EF4909580957A
:10388000709561957F4F8F4F9F4F9923A9F0F92F26
:1038900096E9BB279395F695879577956795B795A4
:1038A000F111F8CFFAF4BB0F11F460FF1BC06F5F8A
:1038B0007F4F8F4F9F4F16C0882311F096E911C09C
:1038C000772321F09EE8872F762F05C0662371F0BD
:1038D00096E8862F70E060E02AF09A95660F771FD1
:1038E000881FDAF7880F9695879597F90895990FAD
:1038F0000008550FAA0BE0E8FEEF16161706E807BA
:10390000F907C0F012161306E407F50798F0621BDA
:10391000730B840B950B39F40A2661F0232B242BAF
:10392000252B21F408950A2609F4A140A6958FEFCE
:10393000811D811D089597F99F6780E870E060E020
:1039400008959FEF80EC089500240A941616170638
:1039500018060906089500240A9412161306140680
:1039600005060895092E0394000C11F4882352F0E3
:10397000BB0F40F4BF2B11F460FF04C06F5F7F4F9B
:103980008F4F9F4F089557FD9058440F551F59F082
:103990005F3F71F04795880F97FB991F61F09F3F3C
:1039A00079F087950895121613061406551FF2CF65
:1039B0004695F1DF08C0161617061806991FF1CFB5
:1039C00086957105610508940895E894BB276627DC
:1039D0007727CB0197F908958ADF08F48FEF0895D0
:1039E0000BD0C0CFB1DF28F0B6DF18F0952309F077
:1039F000A2CFA7CF1124EACFC6DFA0F3959FD1F3C2
:103A0000950F50E0551F629FF001729FBB27F00D8C
:103A1000B11D639FAA27F00DB11DAA1F649F6627E1
:103A2000B00DA11D661F829F2227B00DA11D621F30
:103A3000739FB00DA11D621F839FA00D611D221FEA
:103A4000749F3327A00D611D231F849F600D211DCE
:103A5000822F762F6A2F11249F5750408AF0E1F071
:103A600088234AF0EE0FFF1FBB1F661F771F881FBA
:103A700091505040A9F79E3F510570F05CCFA6CF02
:103A80005F3FECF3983EDCF3869577956795B795A5
:103A9000F795E7959F5FC1F7FE2B880F911D9695CF
:103AA000879597F90895629FD001739FF001829FD7
:103AB000E00DF11D649FE00DF11D929FF00D839FBD
:103AC000F00D749FF00D659FF00D9927729FB00D5A
:103AD000E11DF91F639FB00DE11DF91FBD01CF016D
:103AE00011240895991B79E004C0991F961708F0D6
:103AF000961B881F7A95C9F78095089597FB092E24
:103B000007260AD077FD04D049D006D000201AF449
:103B1000709561957F4F0895F6F7909581959F4F29
:103B20000895A1E21A2EAA1BBB1BFD010DC0AA1FFE
:103B3000BB1FEE1FFF1FA217B307E407F50720F016
:103B4000A21BB30BE40BF50B661F771F881F991F91
:103B50001A9469F760957095809590959B01AC01DA
:103B6000BD01CF01089597FB092E05260ED057FD04
:103B700004D0D7DF0AD0001C38F45095409530951A
:103B800021953F4F4F4F5F4F0895F6F790958095E1
:103B9000709561957F4F8F4F9F4F0895AA1BBB1B58
:103BA00051E107C0AA1FBB1FA617B70710F0A61B3D
:103BB000B70B881F991F5A95A9F780959095BC015E
:103BC000CD010895EE0FFF1F0590F491E02D0994AB
:103BD000911116C0803219F089508550D0F70895A0
:103BE0009111089581548A5108F4805E855A089590
:103BF0009111089581568A5108F48052855808958C
:103C00009927882708952F923F924F925F926F9243
:103C10007F928F929F92AF92BF92CF92DF92EF925C
:103C2000FF920F931F93CF93DF93CDB7DEB7CA1BDD
:103C3000DB0B0FB6F894DEBF0FBECDBF09942A8808
:103C4000398848885F846E847D848C849B84AA84B0
:103C5000B984C884DF80EE80FD800C811B81AA813D
:103C6000B981CE0FD11D0FB6F894DEBF0FBECDBF08
:083C7000ED010895F894FFCF67
:103C780000000000F40280038802B9029902E202FF
:103C88000000000069118003691169116911691147
:103C98002E0000000000691180030001C407000025
:103CA80000000000803F000000400000404000008D
:103CB80080400000A0400000C0400000E04000003C
:103CC8000041000010410000204100003041000088
:103CD8004041000050410000604100007041000078
:103CE8008041000088410000904100009841000098
:103CF800A0410000A8410000B0410000B841000008
:103D0800C0410000C8410000D0410000D841000077
:103D1800E0410000E8410000F0410000F8410000E7
:103D28000042000004420000084200000C4200006B
:103D38001042000014420000184200001C4200001B
:103D48002042000024420000284200002C420000CB
:103D58003042000034420000384200003C4200007B
:103D68004042000044420000484200004C4200002B
:103D78005042000054420000584200005C420000DB
:103D88006042000064420000684200006C4200008B
:103D98007042000074420000784200007C4200003B
:103DA80080420000824200008442000086420000F7
:103DB800884200008A4200008C4200008E420000C7
:103DC8009042000092420000944200009642000097
:103DD800984200009A4200009C4200009E42000067
:103DE800A0420000A2420000A4420000A642000037
:103DF800A8420000AA420000AC420000AE42000007
:103E0800B0420000B2420000B4420000B6420000D6
:103E1800B8420000BA420000BC420000BE420000A6
:103E2800C0420000C2420000C4420000C642000076
:103E3800C8420000CA420000CC420000CE42000046
:103E4800D0420000D2420000D4420000D642000016
:103E5800D8420000DA420000DC420000DE420000E6
:103E6800E0420000E2420000E4420000E6420000B6
:103E7800E8420000EA420000EC420000EE42000086
:103E8800F0420000F2420000F4420000F642000056
:103E9800F8420000FA420000FC420000FE42000026
:103EA80000430000014300000243000003430000F8
:103EB80004430000054300000643000007430000D8
:103EC80008430000094300000A4300000B430000B8
:103ED8000C4300000D4300000E4300000F43000098
:103EE8001043000011430000124300001343000078
:103EF8001443000015430000164300001743000058
:103F080018430000194300001A4300001B43000037
:103F18001C4300001D4300001E4300001F43000017
:103F280020430000214300002243000023430000F7
:103F380024430000254300002643000027430000D7
:103F480028430000294300002A4300002B430000B7
:103F58002C4300002D4300002E4300002F43000097
:103F68003043000031430000324300003343000077
:103F78003443000033430000324300003143000063
:103F8800304300002F4300002E4300002D43000063
:103F98002C4300002B4300002A4300002943000063
:103FA8002843000027430000264300002543000063
:103FB8002443000023430000224300002143000063
:103FC800204300001F4300001E4300001D43000063
:103FD8001C4300001B4300001A4300001943000063
:103FE8001843000017430000164300001543000063
:103FF8001443000013430000124300001143000063
:10400800104300000F4300000E4300000D43000062
:104018000C4300000B4300000A4300000943000062
:104028000843000007430000064300000543000062
:104038000443000003430000024300000143000062
:1040480000430000FE420000FC420000FA4200006B
:10405800F8420000F6420000F4420000F24200007C
:10406800F0420000EE420000EC420000EA4200008C
:10407800E8420000E6420000E4420000E24200009C
:10408800E0420000DE420000DC420000DA420000AC
:10409800D8420000D6420000D4420000D2420000BC
:1040A800D0420000CE420000CC420000CA420000CC
:1040B800C8420000C6420000C4420000C2420000DC
:1040C800C0420000BE420000BC420000BA420000EC
:1040D800B8420000B6420000B4420000B2420000FC
:1040E800B0420000AE420000AC420000AA4200000C
:1040F800A8420000A6420000A4420000A24200001C
:10410800A04200009E4200009C4200009A4200002B
:10411800984200009642000094420000924200003B
:10412800904200008E4200008C4200008A4200004B
:10413800884200008642000084420000824200005B
:10414800804200007C420000784200007442000077
:10415800704200006C4200006842000064420000A7
:10416800604200005C4200005842000054420000D7
:10417800504200004C420000484200004442000007
:10418800404200003C420000384200003442000037
:10419800304200002C420000284200002442000067
:1041A800204200001C420000184200001442000097
:1041B800104200000C4200000842000004420000C7
:1041C80000420000F8410000F0410000E841000012
:1041D800E0410000D8410000D0410000C841000083
:1041E800C0410000B8410000B0410000A8410000F3
:1041F800A041000098410000904100008841000063
:104208008041000070410000604100005041000002
:1042180040410000304100002041000010410000F2
:1042280000410000E0400000C0400000A040000045
:10423800804000004040000000400000803F040033
:1042480000000000000001006701002000CE070008
:064258000001000000005F
:00000001FF
